{
  "contractName": "TodoFeed",
  "abi": [
    {
      "constant": true,
      "inputs": [
        {
          "name": "",
          "type": "uint256"
        }
      ],
      "name": "todoList",
      "outputs": [
        {
          "name": "todoId",
          "type": "uint256"
        },
        {
          "name": "owner",
          "type": "address"
        },
        {
          "name": "title",
          "type": "string"
        },
        {
          "name": "photo",
          "type": "bytes"
        },
        {
          "name": "timestamp",
          "type": "uint256"
        },
        {
          "name": "isVerified",
          "type": "bool"
        },
        {
          "name": "verifier",
          "type": "address"
        }
      ],
      "payable": false,
      "stateMutability": "view",
      "type": "function"
    },
    {
      "constant": true,
      "inputs": [
        {
          "name": "",
          "type": "uint256"
        }
      ],
      "name": "todoMap",
      "outputs": [
        {
          "name": "todoId",
          "type": "uint256"
        },
        {
          "name": "owner",
          "type": "address"
        },
        {
          "name": "title",
          "type": "string"
        },
        {
          "name": "photo",
          "type": "bytes"
        },
        {
          "name": "timestamp",
          "type": "uint256"
        },
        {
          "name": "isVerified",
          "type": "bool"
        },
        {
          "name": "verifier",
          "type": "address"
        }
      ],
      "payable": false,
      "stateMutability": "view",
      "type": "function"
    },
    {
      "anonymous": false,
      "inputs": [
        {
          "indexed": true,
          "name": "todoId",
          "type": "uint256"
        },
        {
          "indexed": false,
          "name": "owner",
          "type": "address"
        },
        {
          "indexed": false,
          "name": "title",
          "type": "string"
        },
        {
          "indexed": false,
          "name": "photo",
          "type": "bytes"
        },
        {
          "indexed": false,
          "name": "timestamp",
          "type": "uint256"
        }
      ],
      "name": "TodoCompleted",
      "type": "event"
    },
    {
      "anonymous": false,
      "inputs": [
        {
          "indexed": true,
          "name": "todoId",
          "type": "uint256"
        },
        {
          "indexed": false,
          "name": "verifier",
          "type": "address"
        }
      ],
      "name": "TodoVerified",
      "type": "event"
    },
    {
      "constant": false,
      "inputs": [
        {
          "name": "title",
          "type": "string"
        },
        {
          "name": "photo",
          "type": "bytes"
        }
      ],
      "name": "writeTodo",
      "outputs": [],
      "payable": false,
      "stateMutability": "nonpayable",
      "type": "function"
    },
    {
      "constant": false,
      "inputs": [
        {
          "name": "todoId",
          "type": "uint256"
        }
      ],
      "name": "verifyTodo",
      "outputs": [],
      "payable": false,
      "stateMutability": "nonpayable",
      "type": "function"
    },
    {
      "constant": true,
      "inputs": [],
      "name": "getTotalTodoCount",
      "outputs": [
        {
          "name": "",
          "type": "uint256"
        }
      ],
      "payable": false,
      "stateMutability": "view",
      "type": "function"
    },
    {
      "constant": true,
      "inputs": [
        {
          "name": "todoId",
          "type": "uint256"
        }
      ],
      "name": "getTodo",
      "outputs": [
        {
          "name": "",
          "type": "uint256"
        },
        {
          "name": "",
          "type": "address"
        },
        {
          "name": "",
          "type": "string"
        },
        {
          "name": "",
          "type": "bytes"
        },
        {
          "name": "",
          "type": "uint256"
        },
        {
          "name": "",
          "type": "bool"
        },
        {
          "name": "",
          "type": "address"
        }
      ],
      "payable": false,
      "stateMutability": "view",
      "type": "function"
    }
  ],
  "bytecode": "0x608060405234801561001057600080fd5b50611354806100206000396000f300608060405260043610610078576000357c0100000000000000000000000000000000000000000000000000000000900463ffffffff168063018514ec1461007d5780631a6fd31b146100aa57806358c2d469146100d5578063864d6dde14610266578063ca29cf30146103f7578063dd68afb6146104a6575b600080fd5b34801561008957600080fd5b506100a860048036038101908080359060200190929190505050610637565b005b3480156100b657600080fd5b506100bf610721565b6040518082815260200191505060405180910390f35b3480156100e157600080fd5b506101006004803603810190808035906020019092919050505061072d565b604051808881526020018773ffffffffffffffffffffffffffffffffffffffff1673ffffffffffffffffffffffffffffffffffffffff1681526020018060200180602001868152602001851515151581526020018473ffffffffffffffffffffffffffffffffffffffff1673ffffffffffffffffffffffffffffffffffffffff168152602001838103835288818151815260200191508051906020019080838360005b838110156101be5780820151818401526020810190506101a3565b50505050905090810190601f1680156101eb5780820380516001836020036101000a031916815260200191505b50838103825287818151815260200191508051906020019080838360005b83811015610224578082015181840152602081019050610209565b50505050905090810190601f1680156102515780820380516001836020036101000a031916815260200191505b50995050505050505050505060405180910390f35b34801561027257600080fd5b50610291600480360381019080803590602001909291905050506108fb565b604051808881526020018773ffffffffffffffffffffffffffffffffffffffff1673ffffffffffffffffffffffffffffffffffffffff1681526020018060200180602001868152602001851515151581526020018473ffffffffffffffffffffffffffffffffffffffff1673ffffffffffffffffffffffffffffffffffffffff168152602001838103835288818151815260200191508051906020019080838360005b8381101561034f578082015181840152602081019050610334565b50505050905090810190601f16801561037c5780820380516001836020036101000a031916815260200191505b50838103825287818151815260200191508051906020019080838360005b838110156103b557808201518184015260208101905061039a565b50505050905090810190601f1680156103e25780820380516001836020036101000a031916815260200191505b50995050505050505050505060405180910390f35b34801561040357600080fd5b506104a4600480360381019080803590602001908201803590602001908080601f0160208091040260200160405190810160405280939291908181526020018383808284378201915050505050509192919290803590602001908201803590602001908080601f0160208091040260200160405190810160405280939291908181526020018383808284378201915050505050509192919290505050610aba565b005b3480156104b257600080fd5b506104d160048036038101908080359060200190929190505050610ec1565b604051808881526020018773ffffffffffffffffffffffffffffffffffffffff1673ffffffffffffffffffffffffffffffffffffffff1681526020018060200180602001868152602001851515151581526020018473ffffffffffffffffffffffffffffffffffffffff1673ffffffffffffffffffffffffffffffffffffffff168152602001838103835288818151815260200191508051906020019080838360005b8381101561058f578082015181840152602081019050610574565b50505050905090810190601f1680156105bc5780820380516001836020036101000a031916815260200191505b50838103825287818151815260200191508051906020019080838360005b838110156105f55780820151818401526020810190506105da565b50505050905090810190601f1680156106225780820380516001836020036101000a031916815260200191505b50995050505050505050505060405180910390f35b600180600083815260200190815260200160002060050160006101000a81548160ff021916908315150217905550336001600083815260200190815260200160002060050160016101000a81548173ffffffffffffffffffffffffffffffffffffffff021916908373ffffffffffffffffffffffffffffffffffffffff160217905550807f302ee80230144d1061548110d083c3143a4d6809120552e04f4a6de72d00b4f633604051808273ffffffffffffffffffffffffffffffffffffffff1673ffffffffffffffffffffffffffffffffffffffff16815260200191505060405180910390a250565b60008080549050905090565b60008181548110151561073c57fe5b90600052602060002090600602016000915090508060000154908060010160009054906101000a900473ffffffffffffffffffffffffffffffffffffffff1690806002018054600181600116156101000203166002900480601f0160208091040260200160405190810160405280929190818152602001828054600181600116156101000203166002900480156108145780601f106107e957610100808354040283529160200191610814565b820191906000526020600020905b8154815290600101906020018083116107f757829003601f168201915b505050505090806003018054600181600116156101000203166002900480601f0160208091040260200160405190810160405280929190818152602001828054600181600116156101000203166002900480156108b25780601f10610887576101008083540402835291602001916108b2565b820191906000526020600020905b81548152906001019060200180831161089557829003601f168201915b5050505050908060040154908060050160009054906101000a900460ff16908060050160019054906101000a900473ffffffffffffffffffffffffffffffffffffffff16905087565b60016020528060005260406000206000915090508060000154908060010160009054906101000a900473ffffffffffffffffffffffffffffffffffffffff1690806002018054600181600116156101000203166002900480601f0160208091040260200160405190810160405280929190818152602001828054600181600116156101000203166002900480156109d35780601f106109a8576101008083540402835291602001916109d3565b820191906000526020600020905b8154815290600101906020018083116109b657829003601f168201915b505050505090806003018054600181600116156101000203166002900480601f016020809104026020016040519081016040528092919081815260200182805460018160011615610100020316600290048015610a715780601f10610a4657610100808354040283529160200191610a71565b820191906000526020600020905b815481529060010190602001808311610a5457829003601f168201915b5050505050908060040154908060050160009054906101000a900460ff16908060050160019054906101000a900473ffffffffffffffffffffffffffffffffffffffff16905087565b6000610ac4611197565b600160008054905001915060e0604051908101604052808381526020013373ffffffffffffffffffffffffffffffffffffffff168152602001858152602001848152602001428152602001600015158152602001600073ffffffffffffffffffffffffffffffffffffffff168152509050600081908060018154018082558091505090600182039060005260206000209060060201600090919290919091506000820151816000015560208201518160010160006101000a81548173ffffffffffffffffffffffffffffffffffffffff021916908373ffffffffffffffffffffffffffffffffffffffff1602179055506040820151816002019080519060200190610bd0929190611203565b506060820151816003019080519060200190610bed929190611283565b506080820151816004015560a08201518160050160006101000a81548160ff02191690831515021790555060c08201518160050160016101000a81548173ffffffffffffffffffffffffffffffffffffffff021916908373ffffffffffffffffffffffffffffffffffffffff16021790555050505080600160008481526020019081526020016000206000820151816000015560208201518160010160006101000a81548173ffffffffffffffffffffffffffffffffffffffff021916908373ffffffffffffffffffffffffffffffffffffffff1602179055506040820151816002019080519060200190610ce3929190611203565b506060820151816003019080519060200190610d00929190611283565b506080820151816004015560a08201518160050160006101000a81548160ff02191690831515021790555060c08201518160050160016101000a81548173ffffffffffffffffffffffffffffffffffffffff021916908373ffffffffffffffffffffffffffffffffffffffff160217905550905050817f9fb38646e839124459ba7ca23f394e368a2db5be10acefd38b926cc9dcb7cb3333868642604051808573ffffffffffffffffffffffffffffffffffffffff1673ffffffffffffffffffffffffffffffffffffffff1681526020018060200180602001848152602001838103835286818151815260200191508051906020019080838360005b83811015610e17578082015181840152602081019050610dfc565b50505050905090810190601f168015610e445780820380516001836020036101000a031916815260200191505b50838103825285818151815260200191508051906020019080838360005b83811015610e7d578082015181840152602081019050610e62565b50505050905090810190601f168015610eaa5780820380516001836020036101000a031916815260200191505b50965050505050505060405180910390a250505050565b600080606080600080600080600160008a81526020019081526020016000206000015414151515610f5a576040517f08c379a00000000000000000000000000000000000000000000000000000000081526004018080602001828103825260138152602001807f546f646f20646f6573206e6f742065786973740000000000000000000000000081525060200191505060405180910390fd5b6001600089815260200190815260200160002060000154600160008a815260200190815260200160002060010160009054906101000a900473ffffffffffffffffffffffffffffffffffffffff16600160008b8152602001908152602001600020600201600160008c8152602001908152602001600020600301600160008d815260200190815260200160002060040154600160008e815260200190815260200160002060050160009054906101000a900460ff16600160008f815260200190815260200160002060050160019054906101000a900473ffffffffffffffffffffffffffffffffffffffff16848054600181600116156101000203166002900480601f0160208091040260200160405190810160405280929190818152602001828054600181600116156101000203166002900480156110db5780601f106110b0576101008083540402835291602001916110db565b820191906000526020600020905b8154815290600101906020018083116110be57829003601f168201915b50505050509450838054600181600116156101000203166002900480601f0160208091040260200160405190810160405280929190818152602001828054600181600116156101000203166002900480156111775780601f1061114c57610100808354040283529160200191611177565b820191906000526020600020905b81548152906001019060200180831161115a57829003601f168201915b505050505093509650965096509650965096509650919395979092949650565b60e06040519081016040528060008152602001600073ffffffffffffffffffffffffffffffffffffffff168152602001606081526020016060815260200160008152602001600015158152602001600073ffffffffffffffffffffffffffffffffffffffff1681525090565b828054600181600116156101000203166002900490600052602060002090601f016020900481019282601f1061124457805160ff1916838001178555611272565b82800160010185558215611272579182015b82811115611271578251825591602001919060010190611256565b5b50905061127f9190611303565b5090565b828054600181600116156101000203166002900490600052602060002090601f016020900481019282601f106112c457805160ff19168380011785556112f2565b828001600101855582156112f2579182015b828111156112f15782518255916020019190600101906112d6565b5b5090506112ff9190611303565b5090565b61132591905b80821115611321576000816000905550600101611309565b5090565b905600a165627a7a723058205ef3211357922bdb25ccc424da75ea0ed054db8f787e77ce6ab300c21285dead0029",
  "source": "pragma solidity 0.4.25;\ncontract TodoFeed {\n  \n  event TodoCompleted (uint256 indexed todoId, address owner, string title, bytes photo, uint256 timestamp);\n  event TodoVerified (uint256 indexed todoId, address verifier);\n\n  TodoData[] public todoList;\n  mapping(uint256 => TodoData) public todoMap;\n\n  struct TodoData {\n    uint256 todoId;                       // Unique token id\n    address owner;\n    string title;\n    bytes photo;                           // Image source encoded in uint 8 array format    \n    uint256 timestamp;                     // Uploaded time\n    bool isVerified;                       // check if is verified, default false.\n    address verifier;                      // verifier address\n  }\n\n  function writeTodo(string title, bytes photo) public {\n    uint256 todoId = todoList.length + 1;\n\n    TodoData memory newData = TodoData({\n      todoId : todoId,\n      owner : msg.sender,\n      title : title,\n      photo : photo,      \n      timestamp : now,\n      isVerified: false,\n      verifier: address(0)\n    });\n\n    todoList.push(newData);\n    todoMap[todoId] = newData;\n\n    emit TodoCompleted(todoId, msg.sender, title, photo, now);\n  }\n\n  function verifyTodo(uint256 todoId) {\n    todoMap[todoId].isVerified = true;\n    todoMap[todoId].verifier = msg.sender;\n\n    emit TodoVerified(todoId, msg.sender);\n  }\n\n  function getTotalTodoCount () public view returns (uint) {\n    return todoList.length;\n  }\n\n  function getTodo (uint todoId) public view \n    returns(uint256, address, string, bytes, uint256, bool, address) {\n      require(todoMap[todoId].todoId != 0, \"Todo does not exist\");\n      return (\n        todoMap[todoId].todoId,\n        todoMap[todoId].owner,\n        todoMap[todoId].title,\n        todoMap[todoId].photo,        \n        todoMap[todoId].timestamp,\n        todoMap[todoId].isVerified,\n        todoMap[todoId].verifier);\n  }\n\n\n}\n",
  "sourcePath": "/Users/willpark/Desktop/bookwork-klaytn/project_codes/todofeed/backend-todofeed/contracts/TodoFeed.sol",
  "compiler": {
    "name": "solc",
    "version": "0.4.25+commit.59dbf8f1.Emscripten.clang"
  },
  "schemaVersion": "2.0.2",
  "updatedAt": "2020-03-23T08:11:45.053Z"
}